:020000040800F2
:10000000680A0020310200086F1F0008091D00085F
:100010006D1F000841070008D723000800000000FA
:100020000000000000000000000000001B2000088D
:1000300043070008000000007D1F00081D20000885
:100040004B0200084B0200084B0200084B0200085C
:100050004B0200084B0200084B0200084B0200084C
:100060004B0200084B0200084B0200084B0200083C
:100070004B0200084B0200084B0200084B0200082C
:100080004B0200084B0200084B0200084B0200081C
:100090004B0200084B0200084B0200084B0200080C
:1000A0004B0200084B0200084B0200084B020008FC
:1000B0004B0200084B0200084B0200084B020008EC
:1000C0004B0200084B0200084B0200084B020008DC
:1000D0004B0200084B0200084B0200084B020008CC
:1000E0004B0200084B0200084B0200084B020008BC
:1000F0004B0200084B0200084B0200084B020008AC
:100100004B0200084B0200084B0200084B0200089B
:100110004B0200084B0200084B0200084B0200088B
:100120004B0200084B0200084B0200084B0200087B
:100130004B0200084B0200084B0200084B0200086B
:100140004B0200084B0200084B020008711F000818
:100150004B0200084B0200084B0200084B0200084B
:100160004B0200084B0200084B0200084B0200083B
:100170004B0200084B0200084B0200080000000080
:100180004B0200084B02000800F002F800F041F8B2
:100190000AA090E8000C82448344AAF10107DA45E2
:1001A00001D100F036F8AFF2090EBAE80F0013F0F3
:1001B000010F18BFFB1A43F001031847BC230000CE
:1001C000DC230000103A24BF78C878C1FAD852075F
:1001D00024BF30C830C144BF04680C6070470000C1
:1001E0000023002400250026103A28BF78C1FBD840
:1001F000520728BF30C148BF0B607047642900F028
:10020000EB80002070471FB502F09CF91FBD10B5B0
:1002100010BD00F060FA1146FFF7F5FF02F04AF951
:1002200000F07EFA03B4FFF7F2FF03BC00F082FA9D
:100230000948804709480047FEE7FEE7FEE7FEE77A
:10024000FEE7FEE7FEE7FEE7FEE7FEE704480549B6
:10025000054A064B70470000BD20000889010008D0
:1002600068040020680A0020680600206806002054
:1002700053EA020C00F069802DE9F04B4FF00006C4
:10028000002B1FBFB3FA83F503FA05F424FA05F631
:100290005E4012BF1643B2FA82F502FA05F4C5F1C8
:1002A00020051EBF22FA05FC44EA0C04203556EA5C
:1002B000044C4FEA144418BF641C4FF000084FF080
:1002C0000009904271EB030C39D3002919BFB1FA30
:1002D00081F701FA07F6B0FA80F700FA07F6C7F1DE
:1002E00020071EBF20FA07FC46EA0C062037B6FBA3
:1002F000F4FCA7EB0507103F07F01F0BCBF120061E
:100300000CFA0BFB2CFA06F644BFB3460026202F4E
:10031000A4BF5E464FF0000B5BEA060C08BF4FF02F
:10032000010B19EB0B09ABFB027C48EB0608C01B69
:1003300006FB02CC0BFB03CC71EB0C01C1E70B46B7
:10034000024641464846BDE8F08B13B54FF0000029
:100350004FF00001AFF30080BDE81C407047000083
:100360000FB41CB5074B06AA7B446946009005985C
:1003700000F093F90020694600F0A2F91CBC5DF87A
:1003800014FB00005503000070B504468569006841
:10039000C10601D5302600E02026C00707D070BD79
:1003A000D4E9012130469047206A401C20626D1E2E
:1003B000F6D570BD70B5044685690078C00707D1D1
:1003C00070BDD4E9012120209047206A401C2062A2
:1003D0006D1EF6D570BD00002DE9F04106460024E3
:1003E00010687529314616A510D0AFF3008000289B
:1003F00002DA404213A507E031688A0701D512A549
:1004000002E0490704D511A5012401E0AFF3008003
:1004100000210A2206F1240709E0B0FBF2FCB0FB40
:10042000F2F302FB1C00303078541846491C0028B7
:10043000F3D123462A463046BDE8F04100F0CEB85D
:10044000000000002D0000002B0000002000000034
:100450002DE9F05F894604464FF0000ADFF824B129
:10046000FB44C0F820A02046E168884700287DD0E2
:10047000252806D0D4E901219047206A401C20623B
:10048000F1E700255F462046E168884720280646B8
:1004900007DB312E05D2B81910F8200C08B105433E
:1004A000F1E7A80701D525F00405C4F81CA0002732
:1004B000C4F818A02A2E09D0304601F09DFF38B3A9
:1004C00004EB8708303EC8F8186019E059F8041B9F
:1004D000204604EB87029161E1688847012F0646B8
:1004E00018D1E069002820DA25F020051DE0D8F8B1
:1004F000180000EB800006EB40003038C8F8180008
:100500002046E1688847064601F076FF0028EED1D4
:10051000012F0AD02E2E08D12046E16888477F1C83
:100520000646022F45F02005C4DBA069002803DA47
:10053000404245F00105A061E80701D025F0100513
:10054000A6B1A6F14100192802D8203645F400656D
:100550004A463146204625604D46FFF74FFE60B1C2
:10056000012807D0ED1D25F0070000E007E000F1AD
:10057000080978E705F1040975E730467AE7206A4B
:10058000BDE8F09F022100004FF0000200B51346C5
:1005900094469646203922BFA0E80C50A0E80C50A3
:1005A000B1F12001BFF4F7AF090728BFA0E80C5054
:1005B00048BF0CC05DF804EB890028BF40F8042B4D
:1005C00008BF704748BF20F8022B11F0804F18BFBA
:1005D00000F8012B70477047704770472DE9F047CE
:1005E0000D4699469246044600F1240801688806A3
:1005F00004D5E06921F01001216000E00120A8424B
:1006000001DD471B00E00027A1697A1902EB090010
:10061000081AA0612078C00602D42046FFF7B4FE75
:10062000002608E0D4E901211AF806009047206A64
:10063000401C761C20624E45F4DB2078C0060AD5AB
:100640002046FFF7A1FE06E0D4E9012130209047C3
:10065000206A401C2062381EA7F10107F4DC07E085
:10066000D4E9012118F805009047206A401C206257
:10067000281EA5F10105F3DC2046FFF79BFE20783C
:10068000000602D50220BDE8F0870120FBE700004C
:1006900001694A1C02610878704700B58FB0CDE946
:1006A00001310021059105497944CDE90310114636
:1006B0006846FFF7CDFE0FB000BD0000E5FFFFFF6D
:1006C0000A6802F8010B0A60704700000048704792
:1006D0000404002070477546FFF7F8FFAE4605009A
:1006E0006946534620F00700854618B020B5FFF74D
:1006F000ADFDBDE820404FF000064FF000074FF081
:1007000000084FF0000B21F00701AC46ACE8C0092F
:10071000ACE8C009ACE8C009ACE8C0098D46704738
:1007200010B50446AFF300802046BDE81040FFF747
:1007300079BD000001491820ABBEFEE7260002008B
:10074000FEE7704772B6FEE72DE9F84FDFF8BCA16F
:100750000022012503264FF00F090AF1040BAAF12C
:10076000040E00BF0B6805FA02F42340A34270D1C7
:100770000F7907F00307012F01D0022F16D18768E8
:100780004FEA420806FA08FC27EA0C07D1F80CC029
:100790000CFA08FC4CEA070CC0F808C04768A743ED
:1007A0000C79C4F3001494403C4344600C79E44356
:1007B000A4070AD0C4684FEA420C06FA0CF7BC43FF
:1007C0008F6807FA0CF72743C7600C7904F003041D
:1007D000022C12D1D40800EB840CDCF8204057071F
:1007E000FF0E09FA07F824EA0804D1F8108008FA85
:1007F00007F848EA0408CCF8208004684FEA420C65
:1008000006FA0CF7BC430F7907F0030707FA0CF759
:10081000274307604C6814F4403F70D03C4C276875
:1008200047F480472760246822F0030704F48044DB
:100830000094384C07EB040CDCF8084897074FEAA3
:10084000177809FA08F7BC43334FB84202D10027A2
:1008500024E054E0314FB84201D101271EE0304F6F
:10086000B84201D1022719E02E4FB84201D1032727
:1008700014E02D4FB84201D104270FE02B4FB842AE
:1008800001D105270AE02A4FB84201D1062705E029
:10089000284FB84201D1072700E0082707FA08F7D8
:1008A0002743CCF80878DAF800405746D1F804C05E
:1008B0009C435FEACC2C00D51C433C60DBF8004035
:1008C0005F46D1F804C09C435FEA8C2C00D51C43E2
:1008D0003C60DEF800407746D1F804C09C435FEAF4
:1008E0008C3C00D51C433C60084F083F3C68D1F865
:1008F00004C09C435FEACC3C00D51C433C60521CC6
:10090000102AFFF42FAFBDE8F88F0000083C01402B
:100910004438024000300140000002400004024020
:1009200000080240000C0240001002400014024087
:1009300000180240001C02400AB18161704709049E
:10094000FBE70000014880687047000000000020BD
:10095000D0F8000301F0D2BBD0F8000301F0D8BBFF
:1009600070472DE9F04106680446304601F046FC28
:10097000012875D1206801F0C6FC002870D02068DD
:1009800001F0C1FC800203D521684FF400104861DA
:10099000206801F0B8FCC00203D521684FF4801034
:1009A0004861206801F0AFFC400103D521684FF099
:1009B00080604861206801F0A6FC800702D52168AC
:1009C00002204861206801F09EFC800015D5216856
:1009D0004FF000504861D6F84004C0070DD11021F7
:1009E000304601F0EBFB304601F0CAFB01212068E4
:1009F00001F06EFC2046FFF7AFFF206801F083FC9A
:100A0000C00102D5204601F0EFF8206801F07BFC20
:100A1000000705D5204600F049F821680820486104
:100A2000206801F070FCC043C0060CD420688169C6
:100A300021F010018161204601F020F920688169D0
:100A400041F010018161206801F05DFC800123D537
:100A5000206801F039FC074600254FF0010814E03A
:100A60001AE005F00F0108FA01F038420CD006EB4D
:100A70004510D0F80005E9B20004204602D500F088
:100A8000B0FE01E000F0A2FF6D1CA068A842E8D80B
:100A900021684FF000704861BDE8F081D0F8000394
:100AA00001F05CBBD0F8000301F05CBBD0F80003A0
:100AB00001F045BB10B5044690F8F802012809D0B2
:100AC000012084F8F802206801F040FC002084F83E
:100AD000F80210BD022010BD70B5040025D094F8B6
:100AE0003D00002520B984F83C50204600F0B8F8BD
:100AF000242084F83D002068016821F00101016094
:100B00002068016841F4004101602068016821F417
:100B10000041016000F0E0FA4D4A6168914201D85D
:100B20004C4900E04C49884201D2012070BD4B493C
:100B30002368B0FBF1F15E6826F03F060E435E606D
:100B40006368934206D94FF4967359434FF47A730E
:100B5000B1FBF3F12368491C1E6A26F03F063143BE
:100B600019626168914210D84900401EB0FBF1F251
:100B7000521CC2F30B02042A01D2042022E0B0FB73
:100B8000F1F0401CC0F30B001CE0A268F2B301EBD3
:100B9000C10303EB0116431EB3FBF6F35B1C43F4E6
:100BA00080431B0549D092B301EBC10202EB011156
:100BB000401EB0FBF1F0401CC0F30B0040F480403D
:100BC00040F400402168CA694CF6FF739A43104311
:100BD000C861D4E9071001432068026822F0C0020E
:100BE00011430160D4E9030101432068826848F29F
:100BF000FF339A4311438160D4E90501084321681A
:100C0000CA6822F0FF021043C86001E00EE016E05F
:100C10002068016841F0010101602564202084F80A
:100C20003D00256384F83E50002070BD01EB410675
:100C3000431EB3FBF6F35B1CB3E70120C2E701EBF5
:100C40004101401EB0FBF1F0401CC0F30B00B7E7C0
:100C5000A086010080841E0000093D0040420F0074
:100C60002DE9F04186B0044614216846FFF78CFC5C
:100C7000304A2168DFF8C08000242F48122504265E
:100C800008F1100891421DD1016841F00201016094
:100C9000006802AA00F0020005906801CDE9000595
:100CA000012082E8510069462448FFF74DFDD8F83D
:100CB000001041F40011C8F80010D8F8000000F44A
:100CC000001032E01E4A914230D1016841F0040127
:100CD0000160016801F004010591016841F0010122
:100CE00001600068032700F0010005905015CDE970
:100CF0000005CDE90247694604961248FFF724FD36
:100D00004FF48070CDE90005CDE9024769460496AD
:100D10000D48FFF719FDD8F8001041F40001C8F89C
:100D20000010D8F8000000F40000059006B0BDE8FF
:100D3000F0810000005400403038024000040240BE
:100D4000005C004000080240000002400248816848
:100D50000278114481607047000000200B4810B5F4
:100D6000016841F400710160016841F48061016033
:100D7000016841F480710160032000F063F80020F5
:100D800000F006F800F024F8002010BD003C0240FE
:100D900070B50D4D04464FF47A712878B1FBF0F030
:100DA0000A490968B1FBF0F000F007FD48B9102CC2
:100DB00007D200222146501E00F024F800206C606B
:100DC00070BD012070BD0000000000200C0000205C
:100DD0000B4882B0016841F480410160006800F472
:100DE000804000900648001F016841F0805101607A
:100DF000006800F080500090072002B000F022B898
:100E000044380240F0B40E4B1B680C46C3F3022377
:100E1000C3F10705042D00D90425191D072901D2A6
:100E2000002300E0DB1E012606FA05F1491E2140E1
:100E300099409E40761E16403143F0BC01F0CCBA7A
:100E40000CED00E0064900F0070208684FF6FF03CA
:100E5000184040EA0220034A10430860704700002F
:100E60000CED00E00000FA052DE9F84305460068A6
:100E70004FF00109C1074FF0000601D1400727D507
:100E8000DFF80C81C8F86860FFF75CFD0746414C4D
:100E900005E000BFFFF756FDC01B022857D82068A9
:100EA0000001F7D468688101287A41EA0070394965
:100EB00084310860C8F86890FFF744FD074604E0F5
:100EC000FFF740FDC01B022841D820680001F7D57C
:100ED0002878800752D52F484030016841F0805172
:100EE000016000682C4C00F080500090206840F4B5
:100EF00080702060FFF726FD074604E0FFF722FD23
:100F0000C01B022823D82068C005F7D5214C7034B7
:100F1000206810F4407020D0A98901F4407181420A
:100F20001BD020681D4920F44070C1F800900E606D
:100F300020602068C00710D0FFF704FD064641F28C
:100F4000883707E0FFF7FEFC801BB84202D9032078
:100F5000BDE8F88320688007F4D5E9680D48C1F33F
:100F600001220830032A0BD0016821F4F811016036
:100F70002068A989C1F30B01084320600020E7E73E
:100F80000268074B22F4F81219400A430260EFE7A7
:100F9000000047420038024000700040400E4742C7
:100FA000FFFCFF0F2DE9F0470E46050065D0DFF886
:100FB0001481D8F80000F7B200F00700B04207D261
:100FC00088F80070D8F8000000F00700B04254D153
:100FD00028683D4C810712D5400703D5206840F4AE
:100FE000E05020602878000703D5206840F4604076
:100FF00020602068A96820F0F0000843206028786D
:10100000C0072DD0304968680839012812D002285D
:1010100013D0032811D00968890700292DDA216827
:1010200021F0030101432160FFF78CFC814641F26E
:10103000883A0EE009688903EFE709688901ECE75F
:10104000FFF780FCA0EB0901514502D90320BDE860
:10105000F0872068696800F00C00B0EB810FEFD1D9
:10106000D8F80010404601F00701B14207D90770D7
:10107000006800F00700B04201D00120E7E72878BF
:10108000400705D52068E96820F4E0500843206057
:101090002878000706D52068296920F4604040EAD6
:1010A000C100206000F028F82168084AC1F303114C
:1010B000515CC8400649086006480068FFF768FEB2
:1010C0000020C4E7003C0240083802404E250008DA
:1010D0000C0000200400002004480549006809684D
:1010E000044AC1F38221515CC84070470C000020C3
:1010F000083802405E250008154810B5006810F059
:101100000C02144813D04110042A0FD0082A0ED123
:101110000F4C241F2268236802F03F025B0207D5B0
:101120002068C0F38810A0FB010106E0084610BD4E
:101130002168C1F38811A1FB00010023FFF798F893
:101140002168C1F30141491C4900B0FBF1F010BD19
:10115000083802400024F4002DE9F84F04006ED056
:101160002078DFF84C93C007A9F104054AD009F1B3
:1011700004000168C1F38101012908D00068C0F3AF
:10118000810002280AD1D9F80000400206D528685B
:10119000800337D560680028E1D033E06068B0F59F
:1011A000803F10D0B0F5A02F286810D020F48030F8
:1011B0002860286820F4802028606068A8B1FFF7C4
:1011C000C1FB06460DE0286840F48030F4E740F4A7
:1011D00080202860F7E700BFFFF7B4FB801B64287E
:1011E00073D828688003F7D50CE0FFF7ABFB064601
:1011F00005E000BFFFF7A6FB801B6428F0D8286835
:101200008003F7D42078DFF8AC8280074FF0000A23
:101210003ED5A748001D016811F00C0F08D00068EA
:10122000C0F3810002280BD1D9F80000400207D496
:101230002868800716D5E068012800D112E033E164
:10124000E068B8B10120C8F80000FFF77BFB064654
:1012500005E000BFFFF776FB801B0228C0D8286896
:101260008007F7D52868216920F0F80040EAC1001E
:1012700028600DE0C8F800A0FFF764FB064604E014
:10128000FFF760FB801B02281FD828688007F7D46F
:101290002078000722D5864F87486169703771B181
:1012A00001210160FFF74EFB064604E0FFF74AFB11
:1012B000801B022809D838688007F7D50EE0C0F8EF
:1012C00000A0FFF73FFB064605E082E0FFF73AFB90
:1012D000801B02287DD838688007F7D42078400723
:1012E00068D5DFF8CCB100270BF13C0BDBF8000030
:1012F000C0000BD4DBF8001041F08051CBF8001097
:10130000DBF80000012700F0805000906B4E306841
:10131000C00510D4306840F480703060FFF712FBD5
:10132000009005E0FFF70EFB0099401A022850D804
:101330003068C005F6D55E4EA0686C3601280FD027
:101340000528306810D020F001003060306820F0AF
:1013500004003060A068B8B1FFF7F4FA00900FE025
:10136000306840F00100F4E740F004003060F7E737
:10137000FFF7E8FA0099411A41F28830814266D8B5
:1013800030688007F4D50EE0FFF7DCFA009007E044
:10139000FFF7D8FA0099411A41F28830814256D8B5
:1013A00030688007F4D42FB1DBF8001021F08051B1
:1013B000CBF80010A069C8B33D49091D0968C1F305
:1013C000810102294AD00228504607D0C8F860009F
:1013D00000E03CE0FFF7B6FA04463BE04746C8F8B9
:1013E0006000FFF7AFFA064605E000BFFFF7AAFA74
:1013F000801B02282BD828688001F7D4D4E9070184
:101400000843A16A2E4A490802EB0141626A41EA97
:101410008211084394F82C1040EA0161C9F80010C9
:1014200001203866FFF78EFA044606E03EE000BF72
:10143000FFF788FA001B022809D828688001F7D531
:1014400034E000BFFFF77EFA001B022802D9032018
:10145000BDE8F88F28688001F4D427E00128F7D090
:10146000D9F80000E26900F4800191421CD1226A9F
:1014700000F03F01914217D147F6C071626A014006
:10148000B1EB821F10D1A26A4FF0FF3300F440315C
:1014900003EB5202B1EB024F06D194F82C1000F08E
:1014A0007060B0EB016F01D00120D1E70020CFE7E1
:1014B0000438024000004742800E4742007000405E
:1014C0000000FFFF0068503040F821207047000006
:1014D00010B500680B4641680D480140080CD870F3
:1014E000C1F304245C7001F03F049C70C1F34231ED
:1014F000197052B900F043FDD870587800F03FFDE4
:101500005870987800F03BFD9870002010BD0000E6
:101510003FFFFF0010B50B460168896A59600168FA
:101520000969C1F30E019960006801680D48014026
:10153000C1F305401870C1F306245C7001F07F040C
:101540009C70890DD97052B900F019FD1870587847
:1015500000F015FD5870987800F011FD987000208B
:1015600010BD00007F7F7F0010B5040002D0607FB7
:1015700010B106E0012010BD00202077204600F0C9
:1015800039F8022060772168CA2048622168532018
:101590004862204600F008FD30BB20688168144A8C
:1015A000114081602168886862681043D4E904238F
:1015B0001A43104388602168E06808612068016967
:1015C000228941EA02410161204600F011FD58B92B
:1015D00021680A6C22F480220A6421680A6CA369DB
:1015E0001A430A64012161772268FF21516210BD0C
:1015F000BFFF8FFF1FB50021009101910291039160
:101600000068084988420CD1022000900002039033
:101610006846FFF729FC08B1FFF794F8024901205A
:1016200008601FBD002800403C0E474270B50446CC
:10163000007F0B46012819D001262677022060770B
:10164000B2B19878D97840EA014558781978000203
:1016500040EA413005432168CA204862216853208E
:101660004862204600F0A0FCD0B122E0022070BD0C
:101670005878C10603D500F0EF000A305870D878CA
:1016800000F086FC0204587800F082FC42EA002256
:10169000987800F07DFC0243187842EA4035DAE79A
:1016A0000748054020684560204600F0A1FC00B9CD
:1016B00066772268FF2151620021217770BD00000A
:1016C0003FFFFF002DE9F0410446007F0D46012851
:1016D00023D04FF0010884F81C8002206077206836
:1016E000002780684FEA4060D2B1002800DBEF702D
:1016F000A878297840EA01466878E978000240EA4B
:10170000815006432168CA204862216853204862FC
:10171000204600F049FCB8B12CE00220BDE8F08181
:10172000002800DBEF70287800F032FC02046878B3
:1017300000F02EFC42EA0022A87800F029FC0243C7
:10174000E87842EA8056DDE70D48064020680660EA
:101750002068816821F480218160D5E90301084374
:1017600021688A6810438860204600F041FC08B96F
:1017700084F81D802268FF2151622777CEE70000A0
:101780007F7F7F0070B504460068C16821F0A0012A
:10179000C160FFF7D7F805464FF47A7607E000BF3F
:1017A000FFF7D0F8401BB04201D9032070BD20687C
:1017B000C0688006F4D5002070BD10B5401EB0F1A1
:1017C000807F01D3012010BD4FF0E02460610F2124
:1017D000601700F001FE0020A061072020610020BA
:1017E00010BD2DE9F047074600680D4600EB411695
:1017F000D6F8080501EB4103420703EBC5014FF0A2
:1018000006004FF004084FF0050A07EB810401D5EC
:1018100041463CE0D6F80815C90507D54FF480705D
:10182000C6F80805072084F861001CE0D6F8081502
:10183000890603D52020C6F8080518E0D6F8081553
:101840000A074FF0080104D5C6F8081584F861A00E
:1018500009E0D6F80825520514D54FF48060C6F883
:10186000080584F861102946386800F0CBFCD6F8EA
:10187000080580050ED52946386800F0C3FC4FF4F2
:101880000070A0E0D6F808150906F0D58021C6F84A
:101890000815C8E7D6F808054FF00001C0074FF05B
:1018A00010094FF001023BD0386930B1A06CD6F876
:1018B0001035C3F31203C01A206584F86120E16576
:1018C000C6F8082594F83F0030B1022804D0032858
:1018D00009D0012807D012E02946386800F092FCB0
:1018E000C6F808950BE0D6F8000540F00050C6F8A1
:1018F000000584F8602029463846FFF731F838693A
:10190000012806D1B4F84010A06CB0FBF1F0C0077C
:1019100004D014F8540F80F001002070BDE8F08767
:10192000D6F80805800735D594F861000223012810
:101930000AD005280BD006280CD008280AD0032886
:101940000FD0072818D01CE084F8602019E084F834
:1019500060A016E0E06D401CE065022801D9E16559
:101960000DE084F86030D6F8000520F0804040F0AB
:101970000040C6F8000504E0E06D401CE06584F816
:101980006080C6F8083594F8602029463846FEF78E
:10199000E7FFC3E7D6F80805C006BFD594F83F00B7
:1019A000032803D020B1022802D00BE0E16505E056
:1019B000E165386930B9032084F861002946386848
:1019C00000F020FC4846C6F80805A7E72DE9F047D7
:1019D000026802EB4114D4F8082501EB41035507D6
:1019E00003EBC1034FF004024FF0060A00EB830340
:1019F00004D5C4F8082583F861A051E0D4F808554F
:101A00004FF00007AD064FF0020C0BD52022C4F8B2
:101A1000082593F83D20012A33D183F83D7083F8DF
:101A200060C03DE0D4F80855AD0504D54FF4007210
:101A3000C4F8082534E0D4F808554FF001065FEAF1
:101A4000C5784FF040050DD0DF65D4F80825520663
:101A500003D583F83D60C4F80855C4F8086583F8D9
:101A600061601DE0D4F808855FEA48680BD583F80B
:101A7000612083F83D60DF65006800F0C3FBC4F8B7
:101A80000855BDE8F087D4F808554FF008095FEA1B
:101A900005784FF0050508D5C4F8089583F861501E
:101AA0000068BDE8F04700F0ADBBD4F808855FEAF8
:101AB000C86810D50322DF6583F8612093F83D20C4
:101AC00022B993F83C200AB983F83D60006800F021
:101AD00099FB10201AE0D4F808855FEA086818D549
:101AE000056955B1DD6D6D1CDD65022D0BD9DF6516
:101AF00083F86020FEF734FF07E083F861A00068F8
:101B000000F080FB01E083F860C08020C4F8080585
:101B1000B7E7D4F808855FEA485807D583F861909D
:101B2000006800F06FFB4FF48060EFE7D4F80885A1
:101B30005FEA8878A5D593F86180B8F1010F0FD0DE
:101B4000B8F1030F30D0B8F1040F2DD0B8F1050F64
:101B50002DD0B8F1060F2DD0B8F1080F2AD03CE0F7
:101B600083F8606093F83F20022A01D0032A34D121
:101B700002692AB993F8552082F0010283F85520B2
:101B80000269012A29D1DA6C3AB3B3F840502A44E9
:101B9000521EB2FBF5F2D2071FD093F8552082F007
:101BA000010283F8552018E083F860C015E083F83F
:101BB000605012E0DD6D6D1CDD65022D03D9DF651F
:101BC00083F8602009E083F860C0D4F8002522F093
:101BD000804242F00042C4F80025C4F808C593F8DA
:101BE0006020FEF7BDFE4CE77CB504680546D4F8DE
:101BF00040040190D4F8400420F02E000090019899
:101C0000800709D50198C00702D02846FEF7A0FE3C
:101C1000009840F0020000900198000724D5009839
:101C200040F008000090019840071AD5A8690228E2
:101C300003D0E86801280CD00FE00198C0F34140C0
:101C40000228286803D0012100F042FB05E00221B0
:101C5000FAE74EF66020C4F804042846FEF722FF97
:101C600002E02846FEF71AFF01988006009802D588
:101C700040F020000090C4F840047CBD2DE9F04104
:101C8000024600680646016AC1F3434301F00F07AC
:101C9000C1F30A15022B31D1002D2FD007EB4701DC
:101CA00001EBC70102EB8104616C002926D0226D93
:101CB000E36C2A449A4223D82A4600F028FB606C41
:101CC00028446064206D2844206506EB4710D0F856
:101CD0001015B4F84020C1F3C941AA420ED1002921
:101CE0000CD0D0F8001521F0804141F00041C0F83F
:101CF000001514F8540F80F001002070BDE8F08149
:101D0000042084F86000F9E7FEE700002DE9F04FB9
:101D100087B014216846FEF737FC4E48002401685E
:101D200041F010010160016801F0100105910168A6
:101D300041F004010160016801F0040105910168AE
:101D400041F080010160016801F0800105910168A6
:101D500041F001010160016801F001010591016894
:101D600041F002010160016801F002010591016882
:101D700041F0080101600068002200F008000590B1
:101D800008213548FEF7D8FDDFF8D0800122114642
:101D90004046FEF7D1FDDFF8C8B04FF2100900222F
:101DA00049465846FEF7C8FD082601250096CDE9AC
:101DB0000154694628480394FEF7C6FC0095CDE916
:101DC0000154694640460394FEF7BEFC0096022685
:101DD000CDE901640527CDE9034769464046FEF792
:101DE000B3FC4FF490180095CDE9018469461D4875
:101DF000FEF7AAFC0420CDE90004DFF86CA06946D8
:101E000050460294FEF7A0FCA8020090CDE90164C0
:101E1000CDE9034769465046FEF796FCCDF80090A1
:101E2000CDE90154694658460394FEF78DFC202005
:101E3000CDE90004694658460294FEF785FC0096F9
:101E4000CDE9018469460448FEF77EFC07B0BDE891
:101E5000F08F0000303802400010024000080240BD
:101E6000000C024000000240000402400D4810B582
:101E70000B4901600C49416000214FF480428160B0
:101E8000C0E9031241618161C1610162FEF724FE74
:101E9000002803D0BDE81040FEF754BC10BD000080
:101EA0000054004014030020A08601000D4810B526
:101EB0000B4901600C49416000214FF48042816070
:101EC000C0E9031241618161C1610162FEF704FE54
:101ED000002803D0BDE81040FEF734BC10BD000060
:101EE000005C004068030020A086010010B586B0A9
:101EF00014216846FEF748FB1B4800241949059445
:101F0000C0E900147F218160FF21C0E9031444610E
:101F10008461FFF729FB08B1FEF714FC8DF800403F
:101F20008DF801408DF802400394012269460E4865
:101F30000494FFF7C7FB08B1FEF704FC01208DF8FD
:101F400014008DF815008DF8160002468DF8174024
:101F500005A90548FFF76AFB002801D0FEF7F2FB50
:101F600006B010BD00280040BC030020FEE7FEE7DD
:101F70000148FEF7F6BC0000100000207047010980
:101F800001EB810100F00F0000EB4100C0B270478F
:101F9000002103E0491C0A38C9B2C0B20A28F9D2AC
:101FA000090740EA116070472DE9F04104460068D6
:101FB0000025C168490618D4C16841F08001C1609C
:101FC000FEF7C0FC06464FF47A78042707E000BF0E
:101FD000FEF7B8FC801B404501D9677701252068D2
:101FE000C068400601D4002DF2D02846BDE8F0813B
:101FF00070B5044600680025C16821F08001C16009
:1020000020688068800606D42046FFF7BBFB10B12D
:10201000042060770125284670BD7047FEF796BE04
:1020200030B593B030216846FEF7AEFA14210CA803
:10203000FEF7AAFA1F480025016841F080510160AF
:10204000006800F0805011901B48016841F4804105
:1020500001600068022400F4804011900920009083
:102060004FF4803001900120CDE9050480050790F0
:10207000082008904FF4A870CDE9090407200B90C0
:102080006846FFF769F808B172B6FEE70CA90F20A1
:1020900081E831004FF4A0500F904FF48050109021
:1020A00005210CA8FEF77EFF002801D072B6FEE7DE
:1020B00013B030BD40380240007000400248016853
:1020C00041F470010160704788ED00E0102907D2EB
:1020D00000EB8100B0F88413C1F30E01C0F8841343
:1020E0000020704701004FF0000004D0012901D00A
:1020F000022901D00220704701207047012180F899
:102100002013002180F8211380F82213084670471D
:1021100010B50446012084F82103002084F8200330
:1021200084F82303204600F021F821792046FFF7A8
:10213000CDFF61792046FFF7C9FF002010BDD0F820
:10214000C413491CC0F8C41301780B2905D1D0F879
:102150007C13002901D0896908477047002180F865
:1021600023137047012180F82313704710B5D0F86E
:10217000D003FEF79FFCBDE81040FFF7B3BF00009F
:1021800008B500220C490092009B5B1C00938B4217
:102190000AD80369002BF7DA009210220261009A34
:1021A000521C00928A4201D9032008BD0269D2065E
:1021B000F5D4002008BD0000400D030018B5002331
:1021C0000D4A0093009C641C009494420CD804694E
:1021D000002CF7DA0093202343EA81110161009972
:1021E000491C0091914201D9032018BD016989065B
:1021F000F5D4002018BD0000400D0300406900F038
:102200000100704718B5002200EB41110092D1F88F
:102210000025D1F80035C2F381428468DB0FA406A3
:1022200000D51BB34FF47A736AB1022A0BD0D1F8F0
:10223000002542F08042C1F80025D0F8100410F4C7
:102240007F0F2BD00CE0D1F8002542F08042C1F87E
:1022500000258268920609D4C06A10F47F0F07D067
:10226000D1F8000540F00040C1F80005002018BD7D
:10227000D1F8000520F00040C1F80005D1F80005B4
:1022800040F00040C1F800050098401C00909842C2
:10229000ECD8D1F800050028F6DBE7E7D1F8000517
:1022A00020F00040C1F80005D1F8000540F00040E2
:1022B000C1F800050098401C00909842D6D8D1F88B
:1022C00000050028F6DBD1E7D0F8140480B270478F
:1022D000D0F8002422F00302C0F80024D0F8002433
:1022E00001F003031A43C0F80024012902D0022997
:1022F00003D006E04BF6803101E041F27071C0F886
:10230000041400207047416980690840704730B567
:1023100003460846940802F00301002203F58053A7
:1023200003E01D6840F8045B521CA242F9D3002967
:102330000BD01C680022D50024FA05F3491E521C5C
:10234000090400F8013B090CF5D130BD38B5002572
:1023500004460095806820F00100A060102120460E
:10236000FFF72CFF00B101252046FFF709FF00B160
:102370000125002004EB4011D1F8002522F0802235
:1023800042F08042C1F80025401C0F28F2D90020FD
:102390004FF47A7304EB4011D1F8002522F4004287
:1023A00042F04042C1F80025009A521C00929A4225
:1023B00003D8D1F80025002AF6DB401C0F28E9D904
:1023C0004FF0FF30C4F814046061A06840F00100D1
:1023D000A060284638BDFEE70907090E002804DB87
:1023E00000F1E02080F80014704700F00F0000F1C9
:1023F000E02080F8141D704730380A2801D20120EF
:1024000070470020704700B587B023208DF800008A
:1024100000208DF8010003208DF8160012208DF8A1
:10242000150022208DF8170006208DF8140005A94C
:10243000684600F051F807B000BD000000B587B055
:10244000002201A91148FFF765F8002206A90F48EC
:10245000FFF73EF89DF8060000909DF805309DF8C6
:1024600004200BA10E48FDF77BFF9DF81B009DF893
:10247000193000F5FA60009009489DF81A2009A16A
:102480001430FDF76DFF07B000BD0000BC03002055
:10249000253032643A253032643A25303264000007
:1024A000DC030020253032642F253032642F2532A2
:1024B00064000000FEF752FCFFF7B2FDFFF726FCB8
:1024C000FFF7D4FCFFF712FDFFF7F0FCFFF79BFFCF
:1024D000FFF7B4FFFCE7000010B586B00C460178AA
:1024E0008DF8001041788DF8011080788DF8020089
:1024F000002003900490012269461148FFF7E2F89A
:1025000008B1FEF71FF920788DF8140060788DF877
:102510001500A0788DF81600E0788DF817000122DC
:1025200005A90748FFF782F808B1FEF70BF943F257
:10253000F22201210248FEF7C5FF06B010BD0000DF
:10254000BC0300204FF04070E1EE100A704700001D
:102550000000000000000102030406070809000053
:102560000000010203040400000800000000000055
:102570000002000100001000982500080000002063
:1025800010000000C4010008A82500081000002069
:10259000580A0000E00100080100000010000000DF
:0825A000000000000024F4001B
:040000050800018965
:00000001FF
